{
  "_format": "hh-sol-artifact-1",
  "contractName": "WavePortal",
  "sourceName": "contracts/WavePortal.sol",
  "abi": [
    {
      "inputs": [],
      "stateMutability": "payable",
      "type": "constructor"
    },
    {
      "anonymous": false,
      "inputs": [
        {
          "indexed": true,
          "internalType": "address",
          "name": "from",
          "type": "address"
        },
        {
          "indexed": false,
          "internalType": "uint256",
          "name": "amount",
          "type": "uint256"
        },
        {
          "indexed": false,
          "internalType": "string",
          "name": "message",
          "type": "string"
        }
      ],
      "name": "NewWave",
      "type": "event"
    },
    {
      "inputs": [],
      "name": "getAllWaves",
      "outputs": [
        {
          "components": [
            {
              "internalType": "address",
              "name": "waver",
              "type": "address"
            },
            {
              "internalType": "string",
              "name": "message",
              "type": "string"
            },
            {
              "internalType": "uint256",
              "name": "timestamp",
              "type": "uint256"
            }
          ],
          "internalType": "struct WavePortal.Wave[]",
          "name": "",
          "type": "tuple[]"
        }
      ],
      "stateMutability": "view",
      "type": "function"
    },
    {
      "inputs": [],
      "name": "getTotalWaves",
      "outputs": [
        {
          "internalType": "uint256",
          "name": "",
          "type": "uint256"
        }
      ],
      "stateMutability": "view",
      "type": "function"
    },
    {
      "inputs": [
        {
          "internalType": "address",
          "name": "",
          "type": "address"
        }
      ],
      "name": "lastWavedAt",
      "outputs": [
        {
          "internalType": "uint256",
          "name": "",
          "type": "uint256"
        }
      ],
      "stateMutability": "view",
      "type": "function"
    },
    {
      "inputs": [],
      "name": "senderAddress",
      "outputs": [
        {
          "internalType": "address",
          "name": "",
          "type": "address"
        }
      ],
      "stateMutability": "view",
      "type": "function"
    },
    {
      "inputs": [
        {
          "internalType": "uint256",
          "name": "",
          "type": "uint256"
        }
      ],
      "name": "senderArr",
      "outputs": [
        {
          "internalType": "string",
          "name": "",
          "type": "string"
        }
      ],
      "stateMutability": "view",
      "type": "function"
    },
    {
      "inputs": [
        {
          "internalType": "string",
          "name": "_message",
          "type": "string"
        }
      ],
      "name": "wave",
      "outputs": [],
      "stateMutability": "nonpayable",
      "type": "function"
    }
  ],
  "bytecode": "0x6080604052620000336040518060600160405280602581526020016200171d602591396200005b60201b620007bf1760201c565b60644244620000439190620001a8565b6200004f919062000245565b600281905550620002ec565b620000fb8160405160240162000072919062000168565b6040516020818303038152906040527f41304fac000000000000000000000000000000000000000000000000000000007bffffffffffffffffffffffffffffffffffffffffffffffffffffffff19166020820180517bffffffffffffffffffffffffffffffffffffffffffffffffffffffff8381831617835250505050620000fe60201b60201c565b50565b60008151905060006a636f6e736f6c652e6c6f679050602083016000808483855afa5050505050565b600062000134826200018c565b62000140818562000197565b9350620001528185602086016200020f565b6200015d81620002db565b840191505092915050565b6000602082019050818103600083015262000184818462000127565b905092915050565b600081519050919050565b600082825260208201905092915050565b6000620001b58262000205565b9150620001c28362000205565b9250827fffffffffffffffffffffffffffffffffffffffffffffffffffffffffffffffff03821115620001fa57620001f96200027d565b5b828201905092915050565b6000819050919050565b60005b838110156200022f57808201518184015260208101905062000212565b838111156200023f576000848401525b50505050565b6000620002528262000205565b91506200025f8362000205565b925082620002725762000271620002ac565b5b828206905092915050565b7f4e487b7100000000000000000000000000000000000000000000000000000000600052601160045260246000fd5b7f4e487b7100000000000000000000000000000000000000000000000000000000600052601260045260246000fd5b6000601f19601f8301169050919050565b61142180620002fc6000396000f3fe608060405234801561001057600080fd5b50600436106100625760003560e01c80631a9cf5c314610067578063449d46c0146100975780634fc84791146100b35780639a2cdc08146100d1578063a42a4663146100ef578063bd43a9081461011f575b600080fd5b610081600480360381019061007c9190610bf7565b61013d565b60405161008e9190610e85565b60405180910390f35b6100b160048036038101906100ac9190610bb6565b6101e9565b005b6100bb6105e5565b6040516100c89190610e48565b60405180910390f35b6100d961060b565b6040516100e69190610fac565b60405180910390f35b61010960048036038101906101049190610b8d565b610656565b6040516101169190610fac565b60405180910390f35b61012761066e565b6040516101349190610e63565b60405180910390f35b6006818154811061014d57600080fd5b90600052602060002001600091509050805461016890611192565b80601f016020809104026020016040519081016040528092919081815260200182805461019490611192565b80156101e15780601f106101b6576101008083540402835291602001916101e1565b820191906000526020600020905b8154815290600101906020018083116101c457829003601f168201915b505050505081565b42601e600460003373ffffffffffffffffffffffffffffffffffffffff1673ffffffffffffffffffffffffffffffffffffffff1681526020019081526020016000205461023691906110be565b1115610277576040517f08c379a000000000000000000000000000000000000000000000000000000000815260040161026e90610f6c565b60405180910390fd5b42600460003373ffffffffffffffffffffffffffffffffffffffff1673ffffffffffffffffffffffffffffffffffffffff1681526020019081526020016000208190555060016000808282546102cd91906110be565b925050819055506103146040518060400160405280601681526020017f257320776176656420772f206d657373616765202573000000000000000000008152503383610858565b600360405180606001604052803373ffffffffffffffffffffffffffffffffffffffff16815260200183815260200142815250908060018154018082558091505060019003906000526020600020906003020160009091909190915060008201518160000160006101000a81548173ffffffffffffffffffffffffffffffffffffffff021916908373ffffffffffffffffffffffffffffffffffffffff16021790555060208201518160010190805190602001906103d3929190610a58565b50604082015181600201555050606460025442446103f191906110be565b6103fb91906110be565b61040591906111f5565b60028190555061044c6040518060400160405280601681526020017f72616e646f6d20232067656e6572617465643a202564000000000000000000008152506002546108f7565b603260025411610592576104956040518060400160405280601281526020017f2573206973207468652077696e6e65723a20000000000000000000000000000081525033610993565b6000655af3107a40009050478111156104e3576040517f08c379a00000000000000000000000000000000000000000000000000000000081526004016104da90610f8c565b60405180910390fd5b60003373ffffffffffffffffffffffffffffffffffffffff168260405161050990610e33565b60006040518083038185875af1925050503d8060008114610546576040519150601f19603f3d011682016040523d82523d6000602084013e61054b565b606091505b505090508061058f576040517f08c379a000000000000000000000000000000000000000000000000000000000815260040161058690610f4c565b60405180910390fd5b50505b3373ffffffffffffffffffffffffffffffffffffffff167f5f7e16dc676677766a70e9c5628aa6c54ddb8b6e5188e2ae1e1f17f1ffbea71642836040516105da929190610fc7565b60405180910390a250565b600160009054906101000a900473ffffffffffffffffffffffffffffffffffffffff1681565b600061064e6040518060400160405280601481526020017f546f74616c207761766520636f756e7473203a200000000000000000000000008152506000546108f7565b600054905090565b60046020528060005260406000206000915090505481565b60606003805480602002602001604051908101604052809291908181526020016000905b828210156107b657838290600052602060002090600302016040518060600160405290816000820160009054906101000a900473ffffffffffffffffffffffffffffffffffffffff1673ffffffffffffffffffffffffffffffffffffffff1673ffffffffffffffffffffffffffffffffffffffff16815260200160018201805461071b90611192565b80601f016020809104026020016040519081016040528092919081815260200182805461074790611192565b80156107945780601f1061076957610100808354040283529160200191610794565b820191906000526020600020905b81548152906001019060200180831161077757829003601f168201915b5050505050815260200160028201548152505081526020019060010190610692565b50505050905090565b610855816040516024016107d39190610e85565b6040516020818303038152906040527f41304fac000000000000000000000000000000000000000000000000000000007bffffffffffffffffffffffffffffffffffffffffffffffffffffffff19166020820180517bffffffffffffffffffffffffffffffffffffffffffffffffffffffff8381831617835250505050610a2f565b50565b6108f283838360405160240161087093929190610ed7565b6040516020818303038152906040527fe0e9ad4f000000000000000000000000000000000000000000000000000000007bffffffffffffffffffffffffffffffffffffffffffffffffffffffff19166020820180517bffffffffffffffffffffffffffffffffffffffffffffffffffffffff8381831617835250505050610a2f565b505050565b61098f828260405160240161090d929190610f1c565b6040516020818303038152906040527f9710a9d0000000000000000000000000000000000000000000000000000000007bffffffffffffffffffffffffffffffffffffffffffffffffffffffff19166020820180517bffffffffffffffffffffffffffffffffffffffffffffffffffffffff8381831617835250505050610a2f565b5050565b610a2b82826040516024016109a9929190610ea7565b6040516020818303038152906040527f319af333000000000000000000000000000000000000000000000000000000007bffffffffffffffffffffffffffffffffffffffffffffffffffffffff19166020820180517bffffffffffffffffffffffffffffffffffffffffffffffffffffffff8381831617835250505050610a2f565b5050565b60008151905060006a636f6e736f6c652e6c6f679050602083016000808483855afa5050505050565b828054610a6490611192565b90600052602060002090601f016020900481019282610a865760008555610acd565b82601f10610a9f57805160ff1916838001178555610acd565b82800160010185558215610acd579182015b82811115610acc578251825591602001919060010190610ab1565b5b509050610ada9190610ade565b5090565b5b80821115610af7576000816000905550600101610adf565b5090565b6000610b0e610b098461101c565b610ff7565b905082815260208101848484011115610b2657600080fd5b610b31848285611150565b509392505050565b600081359050610b48816113bd565b92915050565b600082601f830112610b5f57600080fd5b8135610b6f848260208601610afb565b91505092915050565b600081359050610b87816113d4565b92915050565b600060208284031215610b9f57600080fd5b6000610bad84828501610b39565b91505092915050565b600060208284031215610bc857600080fd5b600082013567ffffffffffffffff811115610be257600080fd5b610bee84828501610b4e565b91505092915050565b600060208284031215610c0957600080fd5b6000610c1784828501610b78565b91505092915050565b6000610c2c8383610dc5565b905092915050565b610c3d81611114565b82525050565b610c4c81611114565b82525050565b6000610c5d8261105d565b610c678185611080565b935083602082028501610c798561104d565b8060005b85811015610cb55784840389528151610c968582610c20565b9450610ca183611073565b925060208a01995050600181019050610c7d565b50829750879550505050505092915050565b6000610cd282611068565b610cdc818561109c565b9350610cec81856020860161115f565b610cf5816112e2565b840191505092915050565b6000610d0b82611068565b610d1581856110ad565b9350610d2581856020860161115f565b610d2e816112e2565b840191505092915050565b6000610d46602a836110ad565b9150610d51826112f3565b604082019050919050565b6000610d69600b836110ad565b9150610d7482611342565b602082019050919050565b6000610d8c602a836110ad565b9150610d978261136b565b604082019050919050565b6000610daf600083611091565b9150610dba826113ba565b600082019050919050565b6000606083016000830151610ddd6000860182610c34565b5060208301518482036020860152610df58282610cc7565b9150506040830151610e0a6040860182610e15565b508091505092915050565b610e1e81611146565b82525050565b610e2d81611146565b82525050565b6000610e3e82610da2565b9150819050919050565b6000602082019050610e5d6000830184610c43565b92915050565b60006020820190508181036000830152610e7d8184610c52565b905092915050565b60006020820190508181036000830152610e9f8184610d00565b905092915050565b60006040820190508181036000830152610ec18185610d00565b9050610ed06020830184610c43565b9392505050565b60006060820190508181036000830152610ef18186610d00565b9050610f006020830185610c43565b8181036040830152610f128184610d00565b9050949350505050565b60006040820190508181036000830152610f368185610d00565b9050610f456020830184610e24565b9392505050565b60006020820190508181036000830152610f6581610d39565b9050919050565b60006020820190508181036000830152610f8581610d5c565b9050919050565b60006020820190508181036000830152610fa581610d7f565b9050919050565b6000602082019050610fc16000830184610e24565b92915050565b6000604082019050610fdc6000830185610e24565b8181036020830152610fee8184610d00565b90509392505050565b6000611001611012565b905061100d82826111c4565b919050565b6000604051905090565b600067ffffffffffffffff821115611037576110366112b3565b5b611040826112e2565b9050602081019050919050565b6000819050602082019050919050565b600081519050919050565b600081519050919050565b6000602082019050919050565b600082825260208201905092915050565b600081905092915050565b600082825260208201905092915050565b600082825260208201905092915050565b60006110c982611146565b91506110d483611146565b9250827fffffffffffffffffffffffffffffffffffffffffffffffffffffffffffffffff0382111561110957611108611226565b5b828201905092915050565b600061111f82611126565b9050919050565b600073ffffffffffffffffffffffffffffffffffffffff82169050919050565b6000819050919050565b82818337600083830152505050565b60005b8381101561117d578082015181840152602081019050611162565b8381111561118c576000848401525b50505050565b600060028204905060018216806111aa57607f821691505b602082108114156111be576111bd611284565b5b50919050565b6111cd826112e2565b810181811067ffffffffffffffff821117156111ec576111eb6112b3565b5b80604052505050565b600061120082611146565b915061120b83611146565b92508261121b5761121a611255565b5b828206905092915050565b7f4e487b7100000000000000000000000000000000000000000000000000000000600052601160045260246000fd5b7f4e487b7100000000000000000000000000000000000000000000000000000000600052601260045260246000fd5b7f4e487b7100000000000000000000000000000000000000000000000000000000600052602260045260246000fd5b7f4e487b7100000000000000000000000000000000000000000000000000000000600052604160045260246000fd5b6000601f19601f8301169050919050565b7f546865207472616e6374696f6e20746f207769746864726177206d6f6e65792060008201527f686173206661696c656400000000000000000000000000000000000000000000602082015250565b7f77616974203135206d696e000000000000000000000000000000000000000000600082015250565b7f547279696e6720746f207769746864726177206d6f6e6579206d6f726520746860008201527f61742062616c616e636500000000000000000000000000000000000000000000602082015250565b50565b6113c681611114565b81146113d157600080fd5b50565b6113dd81611146565b81146113e857600080fd5b5056fea2646970667358221220e5eb0315a8bedb48fb6f7d5957f23e3d21121f4480db4aa9704441d15d1e3b3864736f6c63430008040033596f20796f2c204920616d206120636f6e747261637420616e64204920616d20736d617274",
  "linkReferences": {},
  "deployedLinkReferences": {}
}